:020000040800F2
:1000000060060020DD010008E5010008E7010008A6
:10001000E9010008EB010008ED0100080000000004
:10002000000000000000000000000000EF010008D8
:10003000F101000800000000F3010008F5010008CC
:10004000F7010008F7010008F7010008F7010008B0
:10005000F7010008F7010008F7010008F7010008A0
:10006000F7010008F7010008F7010008F701000890
:10007000F7010008F7010008F7010008F701000880
:10008000F7010008F7010008F7010008F701000870
:10009000F7010008F7010008F7010008F701000860
:1000A000F7010008F7010008F7010008F701000850
:1000B000F7010008F7010008F7010008F701000840
:1000C000F7010008F7010008F7010008F701000830
:1000D000F7010008F7010008F7010008F701000820
:1000E000F7010008F7010008F7010008F701000810
:1000F000F7010008F7010008F7010008F701000800
:10010000F7010008F7010008F7010008F7010008EF
:10011000F7010008F7010008F7010008F7010008DF
:10012000F7010008F7010008F7010008F7010008CF
:1001300000F002F800F042F814A696E8000CB24471
:10014000B344DA4501D100F039F8BAE80F000FA640
:1001500096E83000A5EB040504EB0607AAEB0704BC
:10016000A7F101074FEA15154FEA3414A4F1010471
:10017000AC4201D300F022F813F0010F18BFFB1AB4
:1001800043F0010300F001F8DBE718479801000095
:10019000A80100007047000000230024002500266D
:1001A000103A28BF78C1FBD8520728BF30C148BFDA
:1001B0000B6070471FB51FBD10B510BD00F031F8C2
:1001C0001146FFF7F7FF00F069F800F04FF803B4AD
:1001D000FFF7F2FF03BC00F057F800000948804722
:1001E00009480047FEE7FEE7FEE7FEE7FEE7FEE719
:1001F000FEE7FEE7FEE7FEE704480549054A064B31
:1002000070470000990200083101000860000020DA
:1002100060060020600200206002002070477047E6
:100220007047754600F02CF8AE4605006946534607
:1002300020F00700854618B020B5FFF7DDFFBDE8C8
:1002400020404FF000064FF000074FF000084FF03D
:10025000000BAC46ACE8C009ACE8C009ACE8C0098A
:10026000ACE8C00921F007018D46704710B504467F
:10027000AFF300802046BDE81040FFF7A8BF0000A4
:10028000004870470000002001491820ABBEFEE77F
:1002900026000200704700007047000080B584B05F
:1002A0000020039041F21801C4F20201086840F0F6
:1002B0001000086041F20001C4F20101086840F436
:1002C0008070086041F20C01C4F20101086820F05E
:1002D00004000860FFE741F20C01C4F20101019142
:1002E000086840F0040008604FF6FF70C0F20F008D
:1002F000029000F009F8019A0298116821F00401B7
:10030000116000F001F8E6E781B00090FFE7009887
:1003100028B1FFE7FFE7009801380090F7E701B048
:100320007047000034030008000000206006000051
:040330009801000828
:0400000508000131BD
:00000001FF
